:020000040800F2
:1000000018040020A52D0008D12B0008D32B0008D0
:1000100000000000000000000000000000000000E0
:10002000000000000000000000000000D72B0008C6
:100030000000000000000000D92B0008DB2B0008A6
:10004000FB17000800000000071A0008071E000840
:100050002B1E0008072700082F2D0008012C000880
:10006000000000003B2D00081D2C0008C92D0008D1
:10007000CB2D0008CD2D0008CF2D0008000000007A
:10008000E32B0008D12D000800000000D32D00084C
:10009000D52D0008D72D0008D92D00080D2C0008FB
:1000A000DB2D0008DD2D0008DF2D0008ED2B0008FA
:1000B000F72B000810B50400002C01D101205EE0F0
:1000C0004120205C002805D1002040216054200000
:1000D00001F094F924204121605420680068012136
:1000E0008843216808606068874901402068016191
:1000F000206880688549014020688160E0680128A7
:1001000006D1A0688021090201432068816005E0D2
:10011000A06884210902014320688160E068022808
:1001200003D1802000012168486020684068784938
:100130000143206841602068C0687449014020681C
:10014000C160206961690143A06900020843216818
:10015000C860E069216A0143206801602068006886
:1001600001210143206801600020606420204121BA
:10017000605400202063002042216054002010BD04
:10018000FEB504000E00089F00254120205C2028B9
:1001900000D0B5E04020205C012801D10220B0E071
:1001A00001204021605401F0E1F905000095192378
:1001B000012280210902200000F0AEFF002801D0BA
:1001C00003209EE0212041216054102042216054F0
:1001D00000206064019860626846008960850020A4
:1001E0006063608DFF280ED9FF202085802080016C
:1001F000009080235B04228DD2B2310089B22000AE
:1002000001F04CF80DE0608D208580208001009089
:1002100080239B04228DD2B2310089B2200001F0EC
:100220003DF8608D002849D02A003900200000F0F8
:100230009CFF002806D0606C042801D1012060E0FA
:1002400003205EE0606A411C616200782168886278
:10025000608D401E6085208D401E2085208D0028E9
:10026000DFD1608D0028DCD000953B00002280218A
:10027000200000F051FF002801D0032041E0608DF4
:10028000FF280DD9FF2020850020009080235B04EB
:10029000228DD2B2310089B2200000F0FFFFC0E70A
:1002A000608D20850020009080239B04228DD2B297
:1002B000310089B2200000F0F1FFB2E72A003900D6
:1002C000200000F07FFF002806D0606C042801D1D8
:1002D000012016E0032014E020202168C861206876
:1002E00040680C4901402068416020204121605451
:1002F000002042216054002040216054002000E092
:100300000220FEBD00000000FFFFFFF0FF7FFFFFA7
:100310000080000200E800FEFEB582B004000A9EE4
:10032000002700254120205C202800D084E0002EFA
:1003300003D06846808D002801D101207DE020682F
:100340008069000401D5022077E04020205C01286C
:1003500001D1022071E001204021605401F006F932
:100360000700212041216054402042216054002098
:10037000606466626846808D60853148E0627B48D3
:100380006063608DFF2805D9FF2020858020400410
:10039000050004E0608D2085802080040500019721
:1003A000192000906846038A684682896846018958
:1003B000200000F02AFB00280CD0606C042804D137
:1003C000002040216054012037E00020402160548B
:1003D000032032E0BB48A16B8862BB48A16B086375
:1003E0000020A16BC8620020A16B4863238D2068A8
:1003F000020028323100A06B01F0F6F800200090D6
:100400002B00228DD2B268460189200000F046FF01
:10041000608D218D401A608500204021605411219B
:10042000200000F052FF206800688021C9010143CC
:1004300020680160002000E0022005B0F0BD00004F
:100440000000FFFFFEB582B004000A9E00270025D1
:100450004120205C202800D085E0002E03D0684693
:10046000808D002801D101207EE020688069000491
:1004700001D5022078E04020205C012801D1022033
:1004800072E001204021605401F070F80700222042
:100490004121605440204221605400206064666223
:1004A0006846808D60858948E06230486063608D71
:1004B000FF2805D9FF20208580204004050004E0A6
:1004C000608D208580208004050001971920009010
:1004D0006846038A6846828968460189200000F0E0
:1004E000E2FA00280CD0606C042804D100204021DE
:1004F0006054012038E0002040216054032033E0A4
:100500007348E16B88627048E16B08630020E16B1F
:10051000C8620020E16B4863238D3200206801002F
:100520002431E06B01F060F89020800100902B00F6
:10053000228DD2B268460189200000F0AFFE608DA6
:10054000218D401A60850020402160542068006899
:10055000802109020143206801601121200000F080
:10056000B4FE002000E0022005B0F0BD99080008AC
:10057000F2B582B0040017001D0000260020019093
:100580004120205C202800D09AE020688069000487
:1005900001D5022095E04020205C012801D10220F5
:1005A0008FE001204021605424204121605400202C
:1005B0006064E068012806D1684600898105890DDC
:1005C0004448084306E0684600898105890DA0205B
:1005D000800108432168486000F0C8FF06002068D9
:1005E000806980061AD420688069C00616D441202C
:1005F000205CA02812D00020C0438542EFD0002DFF
:1006000004D000F0B3FF801B8542E8D220204121B6
:100610006054002040216054032052E0206880692B
:10062000C00615D400962B0000222021200000F0E7
:1006300073FD002801D0032043E020202168C86119
:10064000202041216054002040216054002038E0E7
:1006500000962B0000222021200000F05DFD0028E4
:1006600001D003202DE010202168C86120202168DE
:10067000C86101980100491C0191B84214D1206859
:1006800040688021C90101432068416000962B0029
:1006900000222021200000F03FFD002801D003208F
:1006A0000FE020202168C8610198B84200D280E79D
:1006B000202041216054002040216054032000E0AC
:1006C0000220FEBD03100008BD1000080000FFFF5F
:1006D000571000080020000270B5040020688669E9
:1006E00020680568606B002804D02A0031002000D3
:1006F000636B984770BD70B50400206886692068F8
:100700000568F00509D5280607D5606C012101436D
:100710006164802040002168C861700509D5280601
:1007200007D5606C0821014361648020C000216806
:10073000C861B00509D5280607D5606C02210143C0
:100740006164802080002168C861606C0B210140D9
:10075000002903D0616C200000F0C0FB70BD412176
:10076000405C704770B504000D0016004020205C0E
:10077000012801D102208CE0012040216054E806CC
:1007800035D5F00633D5608D002828D1E06A802168
:100790008904884204D0E06A80218904884208D113
:1007A0004120205C282804D12900200000F060FBB3
:1007B00063E0E06A374988420DD04120205C292857
:1007C00009D110202168C861200000F007FC20003A
:1007D00000F029FA51E010202168C8614DE0102096
:1007E0002168C861606C04210143616445E06807C9
:1007F0001BD5700719D5608D00280BD0606A411C8D
:1008000061622168496A0170208D401E2085608DDB
:10081000401E6085608D00282FD1E06A1D49884206
:100820002BD0200000F0FFF927E0280706D530077D
:1008300004D52900200000F083F91EE0A8071CD58C
:10084000B0071AD5608D00280CD0606A411C616227
:10085000007821688862608D401E6085208D401E72
:1008600020850AE0E06A80214904884202D0E06ADB
:10087000002802D1200000F0D6F9A80605D5B00660
:1008800003D52900200000F067FA002040216054C1
:10089000002070BD0000FFFFF0B583B004000E0023
:1008A000170000206946888000254020205C012830
:1008B00001D1022069E0012040216054F00610D5EA
:1008C000F8060ED510202168C861606C0421014330
:1008D00061641221200000F0F8FC200000F07EFB93
:1008E0004FE0300645D5780643D5206800684021A2
:1008F000884321680860608D002835D068462168EB
:1009000049688905890D8180608DFF2805D9FF2000
:10091000208580204004050004E0608D2085802033
:1009200080040500002000902B00228DD2B2684682
:100930008188200000F0B2FC608D218D401A608516
:100940004120205C222807D120680068802109020C
:1009500001432068016014E0206800688021C9011B
:100960000143206801600CE04021200000F0B6FA4D
:1009700007E0B00605D5B80603D53100200000F029
:100980007FF90020402160540020FEBD70B50400B6
:100990000D0016004020205C012801D1022033E028
:1009A000012040216054E8061AD5F00618D54120F0
:1009B000205C212803D1A06B0068406802E0E06B56
:1009C00000684068002803D110202168C86117E042
:1009D00010202168C861606C0421014361640FE04C
:1009E000280705D5300703D508202168C86107E02E
:1009F000A80605D5B00603D52900200000F0ACF903
:100A0000002040216054002070BDFBB50400170099
:100A1000089E099D80208001009080235B04684629
:100A20000289D2B268468188200000F037FC2A0093
:100A30003100200000F099FB002806D0606C0428EB
:100A400001D101202EE003202CE068460089012816
:100A500004D13800C0B22168886217E0380080B243
:100A6000000AC0B2216888622A003100200000F02C
:100A70007CFB002806D0606C042801D1012011E025
:100A800003200FE03800C0B221688862009533006F
:100A900000228021200000F03FFB002801D003202D
:100AA00000E00020FEBDFBB504001700089E099D74
:100AB000802080010090002368460289D2B26846F7
:100AC0008188200000F0EAFB2A003100200000F0BD
:100AD0004CFB002806D0606C042801D101202EE0D8
:100AE00003202CE068460089012804D13800C0B2F8
:100AF0002168886217E0380080B2000AC0B221681D
:100B000088622A003100200000F02FFB002806D068
:100B1000606C042801D1012011E003200FE03800AF
:100B2000C0B2216888620095330000224021200075
:100B300000F0F2FA002801D0032000E00020FEBD02
:100B4000F2B582B004000026002500270020694687
:100B500008804120205C2821014028295CD12068A0
:100B60008069000C0100C907C90F0E002068806968
:100B7000000CFE2101400D00206880688005800D7A
:100B8000070068462168C968FE220A400280E068C2
:100B9000022832D1ADB206202840390089B2C909F5
:100BA00006220A40904216D13D00A06C401CA06471
:100BB000A06C022836D10020A06408202168C861FA
:100BC0000020402160542A0092B23100C9B22000B6
:100BD00000F010FE26E06846008805000421200091
:100BE00000F0C6FB0020402160542A0092B2310080
:100BF000C9B2200000F0FEFD14E00421200000F046
:100C0000B7FB0020402160542A0092B23100C9B2E3
:100C1000200000F0EFFD05E008202168C8610020F9
:100C200040216054F7BD10B50400002042216054FB
:100C30004120205C29280FD1282041216054212007
:100C400020630121200000F093FB0020402160542C
:100C5000200000F0D0FD12E04120205C2A280ED1B7
:100C6000282041216054222020630221200000F02E
:100C70007FFB002040216054200000F0BDFD10BD2E
:100C800038B504000D0020202168C8612068406844
:100C9000914901402068416000202063002060638A
:100CA000CD48E062E80606D510202168C861606C76
:100CB000042101436164200000F090F90321200029
:100CC00000F056FB606C002803D14120205C6028B6
:100CD00004D1616C200000F001F93CE04120205C6F
:100CE00021281AD12020412160544220205C402834
:100CF00009D100204221605400204021605420008E
:100D000000F020FE27E00020422160540020402116
:100D10006054200000F073FE1DE04120205C22287A
:100D200019D12020412160544220205C402809D163
:100D3000002042216054002040216054200000F037
:100D400002FE08E00020422160540020402160544F
:100D5000200000F055FE31BD38B504000D00202004
:100D60002168C86108202168C8610721200000F0BF
:100D7000FFFA206840688021090201432068416031
:100D8000206840685449014020684160200000F01C
:100D900025F920680068400403D420680068000436
:100DA0000BD54120205C212803D1A06B006840684E
:100DB00002E0E06B006840686085608D002803D029
:100DC000606C042101436164680712D5606A411CAC
:100DD00061622168496A0170208D002809D0208D48
:100DE000401E2085608D401E6085606C042101439B
:100DF0006164002020630020422160540020606371
:100E0000606C00280CD0616C200000F067F8412075
:100E1000205C28282BD12900200000F029F826E0AA
:100E2000E06AA24988420BD0A048E062202041211C
:100E30006054002040216054200000F0E2FD16E0E4
:100E40004120205C222809D120204121605400202B
:100E500040216054200000F0CFFC08E02020412118
:100E60006054002040216054200000F0C4FC31BDDB
:100E700038B504000D008D48E0620020206320207A
:100E800041216054002042216054002060636807C3
:100E900012D5606A411C61622168496A0170208D27
:100EA000002809D0208D401E2085608D401E608561
:100EB000606C0421014361640721200000F058FAAE
:100EC00010202168C861002040216054200000F0FB
:100ED00098FD31BD0000000000E800FE38B50400B8
:100EE0000D000020422160543B48E06200206085F4
:100EF000606C284360644120205C282807D0412092
:100F0000205C292803D04120205C2A280BD1032112
:100F1000200000F02DFA2820412160540020206399
:100F2000634860630EE00721200000F021FA4120B1
:100F3000205C602802D020204121605400202063E2
:100F40000020606320680068400415D520680068B0
:100F500058490140206801605748A16B4863002050
:100F600040216054A06B00F087FB002832D0A06BBA
:100F7000A16B496B88472DE020680068000415D5F7
:100F800020680068A4490140206801604A48E16B7C
:100F90004863002040216054E06B00F06DFB0028A6
:100FA00018D0E06BE16B496B884713E04120205C6F
:100FB000602809D120204121605400204021605444
:100FC000200000F01FFD05E00020402160542000BB
:100FD00000F0BAFC31BD00000000FFFF00B5016861
:100FE0008969890702D500210268916201688969CF
:100FF000C90705D40168896901220A4301688A6129
:1010000000BD38B505006C6A2068006829490140B8
:1010100020680160608D002804D11221200000F0BA
:1010200054F917E0606A218D40186062608DFF28D6
:1010300002D9FF20208501E0608D2085238D206866
:1010400002002832616AA06B00F0CEFA1221200063
:1010500000F03BF931BD38B505006C6A20680068C6
:101060006D49014020680160608D002804D1122183
:10107000200000F02AF917E0606A218D40186062B4
:10108000608DFF2802D9FF20208501E0608D20853A
:10109000238D626A206801002431E06B00F0A4FA1D
:1010A0001221200000F011F931BD00000000FFFF07
:1010B00065070008FFBFFFFFDB10000838B504001C
:1010C000656A2868406880210902014328684160F8
:1010D00010212800FFF702FF31BD38B50400656A12
:1010E0002868406880210902014328684160002087
:1010F000A96B48630020E96B48634120285C6028A5
:1011000006D1202041216854280000F07BFC02E039
:10111000280000F019FC31BDF4B504000F001D00DB
:10112000069E206880693840B84201D1012000E065
:10113000002069460978884215D10020C0438542C5
:10114000EFD0002D04D000F011FA801B8542E8D2C8
:101150002020412160540020422160540020402181
:101160006054032000E00020F2BD70B504000D00C3
:10117000160020688069800722D4320029002000F0
:1011800000F04CF8002801D001201AE00020C043F4
:101190008542EED0002D04D000F0E8F9801B854296
:1011A000E7D2606C2021014361642020412160541A
:1011B000002042216054002040216054032000E0C0
:1011C000002070BD70B504000D0016002068806915
:1011D00080061ED432002900200000F01FF80028ED
:1011E00001D0012016E0002D04D000F0BFF9801BD3
:1011F0008542EBD2606C20210143616420204121B3
:10120000605400204221605400204021605403209B
:1012100000E0002070BD0000FF7FFFFF70B50400FC
:101220000D00160020688069C00635D520688069E9
:10123000800615D40020C0438542F7D0002D04D08D
:1012400000F094F9801B8542F0D2202041216054A7
:1012500000204221605400204021605403201CE003
:1012600010202168C86120202168C8612000FFF794
:10127000B5FE206840683A4901402068416004207A
:1012800060642020412160540020422160540020ED
:1012900040216054012000E0002070BDF0B4049CA7
:1012A00000250668766835002E002E4D35402F004B
:1012B00089B28E05B60DD2B2150435431D432543C0
:1012C0003D4306687560F0BC704710B5020000230E
:1012D000506B254CA04203D0506B244CA0421ED131
:1012E00089B2480702D51800B823034389B21120F8
:1012F0000840112802D118009023034389B212201C
:101300000840122802D118002023034389B212207A
:10131000084012281DD118004023034319E089B268
:10132000480702D51800B823034389B2C80702D57D
:101330001800F223034389B2880702D51800F4236A
:10134000034389B212200840122802D1180020233A
:10135000034310680068184314682060002010BD23
:1013600000E800FE009800FC990800088D090008BC
:1013700010B50200002389B2C8070BD5180042231C
:1013800003434120105C28240440282C02D018007C
:10139000B023034389B288070BD5180044230343C5
:1013A0004120105C28240440282C02D01800B023CF
:1013B000034389B2480702D51800B823034389B212
:1013C00011200840112802D118009023034389B24C
:1013D00012200840122802D118002023034389B2AA
:1013E00012200840122802D118004023034310683D
:1013F0000068984314682060002010BD10B586B0C6
:101400000400534800688021C9020143504801602C
:101410004F4800688021C9020840009000984C485D
:1014200000688021C90201434948016048480068BA
:101430008021C90208400090009846480068802139
:1014400089030143434801604248006880218903C1
:101450000840009000983E480068012101433C4844
:1014600001603B4800680100C907C90F009100985E
:10147000402001901220029000200390032004904D
:101480000120059001A9344800F0BEFA80200190A7
:101490000120059001A9304800F0B6FA2F483049E4
:1014A000086010202E49486000202D498860802067
:1014B0002B49C86000202A4908610020284948615A
:1014C00000202749886100202549C861244800F090
:1014D00053F82348A0632248446222482249086006
:1014E00000202149486000201F49886080201E4953
:1014F000C86000201C49086100201B494861002089
:1015000019498861802080011749C861164800F098
:1015100033F81548E06314484462002200210A2091
:1015200000F0F6FB0A2000F0FDFB002200210A205B
:1015300000F0EEFB0A2000F0F5FB0122002117204D
:1015400000F0E6FB172000F0EDFB06B010BD000038
:10155000141002401C100240000400481C0002400D
:101560004405002030000240880500200148006842
:10157000704700BF0C06002038B504000025002C81
:1015800001D101202DE00220212160542068006853
:1015900005002800134D054028006168A2680A4331
:1015A000E168114322690A4361691143A2690A4350
:1015B000E5691543054320680560200000F007F940
:1015C0000020A0620020E062002020630020606311
:1015D0000020A063012021216054002020216054BC
:1015E000002032BD0FC0FFFFF2B5040017001E003F
:1015F00000252020205C012801D102203BE00120B1
:10160000202160542120205C01282DD1022021219D
:1016100060540020A063206800680121884321688D
:10162000086033003A000099200000F0BBF8E06A3F
:10163000002806D0206800680E2101432068016060
:101640000BE0206800680A210143206801602068DF
:10165000006804218843216808602068006801212F
:1016600001432068016004E0002020216054022032
:1016700005002800C0B2F2BD38B5040000252120C5
:10168000205C022804D00420A063012005001CE097
:10169000206800680E21884321680860206800687F
:1016A00001218843216808600120216C8840E16B9A
:1016B0004860012021216054002020216054606B8B
:1016C000002802D02000616B88472800C0B232BDDC
:1016D00070B50400E06B0568206806680420216C82
:1016E00088402840002817D0700715D5206800686A
:1016F000800605D4206800680421884321680860BA
:101700000420216C8840E16B4860E06A002848D0E2
:101710002000E16A884744E00220216C884028408C
:1017200000281DD0B0071BD520680068800608D4AB
:10173000206800680A21884321680860012021216F
:1017400060540220216C8840E16B48600020202119
:101750006054A06A002824D02000A16A884720E0B5
:101760000820216C8840284000281AD0300718D55E
:10177000206800680E218843216808600120216CE0
:101780008840E16B48600120A06301202121605462
:10179000002020216054206B002802D02000216B03
:1017A000884770BD30B50124056CAC40C56B6C60DA
:1017B000046863604468102C04D10468A260046863
:1017C000E16003E00468A1600468E26030BD10B528
:1017D0000400206805494018142100F0BDFA80007B
:1017E00020640348E06310BD00000000F8FFFDBF67
:1017F00000000240704770477047FEE770B58CB03C
:1018000000F002FB00F0A6F8002000F00FFB012022
:1018100000F00CFB022000F009FB07A8654910222C
:1018200000F088FB00260020694608726248634980
:101830000860634861494860002060498860012071
:101840005E49C86000205D49086100205B4948612D
:1018500000205A49C8610020584908625748FEF7DD
:1018600029FC002801D000F0BFF80021534800F007
:101870007BFB00247F2C10DAFA20800000900123EB
:1018800002AA2000410089B24C48FEF779FC0028EA
:1018900001D1260001E0641CECE7002005000020D7
:1018A0000500ADB2FF2D4CDC0120019007A800908F
:1018B00001232A0092B2A0214048FEF72DFD002806
:1018C00004D000F091F8012000F00EFB3B48FEF739
:1018D00046FF2028FAD196235B0096225200A021D1
:1018E0003648FEF745FE0328F5D03448FEF737FFAB
:1018F0002028FAD10020694608730120019003A82E
:10190000009001232A0092B2A0212C48FEF79AFDF4
:10191000002804D000F068F8022000F0E5FA27481B
:10192000FEF71DFF2028FAD16846007B6946097F33
:10193000884204D000F058F8002000F0D5FA6D1C61
:10194000AFE7FEE77047704710B50400032000F0D2
:10195000CBFA10BD00B591B0012004900120059094
:1019600002200C90802040020D9000200F908020DB
:1019700040030E9004A800F02DFB002800D0FEE7E5
:101980000720009002200190002002900020039088
:101990000121684600F082FD002800D0FEE711B06A
:1019A00000BD0121074A117070470121054A1170DD
:1019B00070470000642D000800540040F804002027
:1019C000FFD3E0001006002010B5040000F00CF872
:1019D00010BD10B50400A4B280208001844202D161
:1019E000012000F091FA10BD80B5012000F07CFAD2
:1019F000012000F089FAFA2000F062FEF8E7704753
:101A0000704770477047FEE7F8B5020000230024D6
:101A100000250868D840002800D1DFE008680126CA
:101A20009E4006403400002C00D1D5E048680228D2
:101A300002D0486812281BD1D80804267043101819
:101A4000006A05000F201E007607760F04277E43EC
:101A5000B040854308691E007607760F04277E4351
:101A6000B04028430500D8080426704310180562CA
:101A70001068050003201E0002277E43B040854306
:101A800008798007800F1E0002277E43B04028435C
:101A9000050015604868012808D04868022805D06C
:101AA0004868112802D0486812281CD190680500A7
:101AB00003201E0002277E43B0408543C8681E00F5
:101AC00002277E43B040284305009560506805001A
:101AD00001209840854348680600F606F60F9E40B0
:101AE0002E4335005560D068050003201E000227F4
:101AF0007E43B040854388681E0002277E43B04085
:101B000028430500D5604868C00065D54348006893
:101B10000126064341480660404800680600F60773
:101B2000F60F009600983E489E0804277E43805991
:101B300005000F201E00B607B60F04277E43B040F5
:101B400085439020C005824201D100200FE0354836
:101B5000824201D101200AE03348824201D10220B1
:101B600005E03248824201D1032000E005201E003A
:101B7000B607B60F04277E43B04028430500284827
:101B80009E0804277E438551294800680500A54327
:101B90004868C00300D525432548056025480068EE
:101BA0000500A5434868800300D52543214805600A
:101BB000214800680500A5434868C00200D52543B8
:101BC0001D4805601D4800680500A543486880025F
:101BD00000D52543194805605B1C1AE7F1BD00B527
:101BE000D2B2002A02D089B2816101E089B2816259
:101BF00000BD426989B24A404261704710B5040095
:101C00000F480068A4B22040002806D0A4B20C48B7
:101C10000460200080B2FFF7DCFE10BD1810024007
:101C2000080001400004004800080048000C00487B
:101C30000004014004040140080401400C04014078
:101C40001404014000B540B2002805D40121C206A9
:101C5000D20E91403A4A116000BDF0B540B2002862
:101C60001BD4384A40B2830804246343D258FF236C
:101C70008407A40F08256C43A3409A438B01DBB271
:101C80008407A40F08256C43A34013432D4A40B298
:101C9000840804256C43135120E02B4C40B202070A
:101CA000120F083A950804225543274A40B2030709
:101CB0001B0F083B9B0804267343D258FF2386075B
:101CC000B60F08277E43B3409A438B01DBB28607E9
:101CD000B60F08277E43B34013436351F0BD10B5E0
:101CE0000400601E80214904884201D301200EE0D7
:101CF000601E1649086003210020C043FFF7ADFFB6
:101D0000002013490860072012490860002010BD18
:101D100070B504000D0016002900200040B2FFF746
:101D20009CFF70BD10B50400200040B2FFF78AFF91
:101D300010BD10B504002000FFF7D1FF10BD00005A
:101D400000E100E000E400E01CED00E014E000E051
:101D500018E000E010E000E00022030A8B420BD202
:101D600003098B4219D243088B422ED2411A00D26A
:101D70000146524110467047FF2209023FD0120629
:101D80008B4205D3121209028B4201D312120902AF
:101D900003098B4219D300E0090AC3098B4201D31E
:101DA000CB01C01A524183098B4201D38B01C01A67
:101DB000524143098B4201D34B01C01A52410309DE
:101DC0008B4201D30B01C01A5241C3088B4201D38D
:101DD000CB00C01A524183088B4201D38B00C01A3A
:101DE000524143088B4201D34B00C01A52418842F2
:101DF00000D3401A5241CFD201461046704708B571
:101E000000F06EFC08BDFEE780B5064800681021B2
:101E1000014304480160032000F063FC00F004F873
:101E2000002002BD002002407047FEE710B586B0DA
:101E30000400E4B2002C0DD13B4800688021C902A7
:101E4000014339480160384800688021C9020840D0
:101E500000900098E4B2012C0DD133480068802135
:101E6000C9020143304801602F4800688021C9023F
:101E7000084000900098E4B2022C0DD12A48006876
:101E80008021C90201432848016027480068802159
:101E9000C902084000900098E4B2032C0DD12248FA
:101EA00000688021C90201431F4801601E48006884
:101EB0008021C9020840009000981C48E4B2022129
:101EC0006143405A019001200290002003900320BA
:101ED000049001A91648E4B2042262438058FFF737
:101EE00093FD06B010BD000010B5040001220F489C
:101EF000E4B202216143415A0D48E4B20423634332
:101F0000C058FFF76CFE10BD10B504000748E4B2DE
:101F100002216143415A0648E4B2042262438058D8
:101F2000FFF767FE10BD000014100240C02D00082E
:101F30000000002070B4103A03D378C9103A78C07A
:101F4000FBD2530701D318C918C001D508C908C06E
:101F5000D20704D30B880380891C801C002A01D57A
:101F60000B78037070BC704700B502004120105C14
:101F700020282AD14020105C012801D1022025E030
:101F800001204023D05424204123D05410680068FD
:101F90000123984313681860106800680C4B0340D5
:101FA00010680360106800680843136818601068C0
:101FB0000068012303431068036020204123D054AC
:101FC00000204023D054002000E0022000BD00008B
:101FD000FFEFFFFF70B582B0040000252078C00736
:101FE00070D5AB4800680C210140042909D0A848ED
:101FF00000680C21014008290CD1A5480068C003E5
:1020000008D5BB48006880035CD56068002859D1BA
:10201000012033E26068012807D1B54800688021BB
:1020200049020143B24801602DE0606800280CD1EC
:10203000AF480068AF490140AD480160AC48006856
:10204000AD490140AA4801601DE0606805280ED135
:10205000A74800688021C9020143A5480160A4483F
:102060000068802149020143A14801600BE0A048BB
:102070000068A04901409E4801609D4800689E4953
:1020800001409B480160606800280DD0FFF76EFAA0
:10209000050097480068800314D4FFF767FA401BD7
:1020A0006528F6D30320E9E1FFF760FA05009048C0
:1020B0000068800306D5FFF759FA401B6528F6D360
:1020C0000320DBE12078800757D5714800680C2198
:1020D0000140002909D06E4800680C210140082900
:1020E00016D16B480068C00312D48148006880078D
:1020F00004D5E068012801D00120BFE17C480068D8
:10210000F82188432169C90001437948016034E01E
:10211000E06800281DD0764800680121014374481A
:102120000160FFF723FA050071480068800706D4B4
:10213000FFF71CFA401B0328F6D303209EE16C48EE
:102140000068F82188432169C9000143684801609B
:1021500013E0674800680121884365490860FFF77C
:1021600005FA050062480068800706D5FFF7FEF90A
:10217000401B0328F6D3032080E1207800072AD5EE
:10218000E069002813D0BE48006801210143BC4823
:102190000160FFF7EBF90500B948006880071AD421
:1021A000FFF7E4F9401B0328F6D3032066E1B448A7
:1021B000006801218843B2490860FFF7D7F905009C
:1021C000AF480068800706D5FFF7D0F9401B032809
:1021D000F6D3032052E12078400700D497E0002690
:1021E000A8480068C0000FD4A648006880214905AF
:1021F0000143A4480160A3480068802149050840C4
:1022000000900098012006009F480068C00514D483
:102210009D4800688021490001439B480160FFF709
:10222000A5F9050098480068C00506D4FFF79EF997
:10223000401B6528F6D3032020E1A068012806D1C1
:102240009248006801210143904801602EE0A06897
:1022500000280CD18D480068012188438B49086013
:102260008A48006804218843884908601EE0A06805
:1022700005280FD185480068042101438348016087
:102280008248006801210143804801600EE000BFE0
:10229000041002407D480068012188437B490860A2
:1022A0007A4800680421884378490860A0680028BB
:1022B0000ED0FFF75BF905007448006880071DD455
:1022C000FFF754F9401B72498842F5D30320D5E04B
:1022D000FFF74CF905006D48006880070ED5FFF741
:1022E00045F9401B6A498842F5D30320C6E000BF88
:1022F00000100240FFFFFEFFFFFFFBFFF6B2012EC2
:1023000005D160480068634901405E48016020785B
:10231000C00655D56069012823D15F4800680421B3
:1023200001435D4801605C480068012101435A484F
:102330000160FFF71BF9050057480068800706D4C5
:10234000FFF714F9401B0328F6D3032096E0524808
:102350000068F8218843A169C90001434E48016023
:102360002EE060690421C94388420FD14A480068C1
:10237000042188434849086047480068F821884399
:10238000A169C90001434448016019E0424800685E
:1023900004210143404801603F480068012188430F
:1023A0003D490860FFF7E2F805003B4800688007F8
:1023B00006D5FFF7DBF8401B0328F6D303205DE0CA
:1023C000206A002859D08D4800680C210140082956
:1023D00051D0206A02283AD18948006889490140D1
:1023E00087480160FFF7C2F8050085480068800152
:1023F00006D5FFF7BBF8401B0328F6D303203DE0CA
:10240000814800680F218843E16A01437E480160EA
:102410007A4800687D490140A06A0843616A014327
:102420007648016076480068802149040143744879
:102430000160FFF79BF805007148006880011CD41B
:10244000FFF794F8401B0328F6D3032016E06C48EE
:1024500000686C4901406A480160FFF787F8050091
:1024600067480068800108D5FFF780F8401B032803
:10247000F6D3032002E0012000E0002076BD00003A
:10248000241002401C100240007000402010024046
:1024900089130000FFFFFFEF3410024070B5050004
:1024A0000C0000267B4800680100C907C90FA14243
:1024B0000FD278480068012188432043754908609D
:1024C000744800680100C907C90FA14201D001206A
:1024D00092E02878800707D548480068F0218843B3
:1024E000A9680143454801602878C00752D568684B
:1024F000012805D142480068800310D401207BE008
:102500006868022805D13E480068800107D4012090
:1025100072E03B480068800701D401206CE0374836
:102520000068032188436968014334480160FFF76C
:102530001DF80600686801280DD1304800680C219C
:102540000140042926D0FFF711F8801B5249884228
:10255000F3D3032050E0686802280DD127480068B3
:102560000C210140082915D0FFF700F8801B4A49CB
:102570008842F3D303203FE0204800680C2101404B
:10258000002907D0FEF7F2FF801B43498842F3D3AE
:10259000032031E03F4800680100C907C90F8C42A1
:1025A0000FD23C4800680121884320433949086024
:1025B000384800680100C907C90FA14201D00120B5
:1025C0001AE02878400707D50C48006833490140D5
:1025D000E86808430949086000F01AF83049074ADA
:1025E000126812091207120F895CC8402D49086051
:1025F000032000F076F8002070BD000004100240B7
:1026000000100240FFFFFFFE2C100240FFFFC2FF40
:10261000F0B589B005A825491022FFF78BFC01A869
:1026200023491022FFF786FC00240020009000259B
:10263000002600271C48006804000C2020400428C5
:1026400002D0082803D01DE01A4807001CE005A8A6
:10265000A10C0907090F405C060001A8164909688A
:102660000907090F405C0090E00306D51148009966
:10267000FFF772FB7043050002E01048704305004D
:102680002F0001E00B480700380009B0F0BD0548F5
:10269000006870470020024089130000FFF8FFFF28
:1026A000942D00081000002004100240742D000832
:1026B000842D000800127A002C10024000093D0011
:1026C00031B5FEF753FF0400009D0020C043854252
:1026D00000D06D1CFEF74AFF001BA842FAD331BDA3
:1026E000704710B50400FFF7D2FFFA218900FFF709
:1026F00033FBFFF71EFB002221000020C043FFF741
:1027000007FB002010BDFEE7F8B504002068C5698E
:10271000206806682807000F00900098002807D15D
:10272000A80605D5B00603D5200000F0F3F886E032
:102730002068806807000098002870D0F80704D44B
:10274000902040003040002869D0E80708D5F00507
:1027500006D5012021680862E06E01210143E1668F
:10276000A80708D5F80706D5022021680862E06EA0
:1027700004210143E166680708D5F80706D504205F
:1027800021680862E06E02210143E16628070AD54C
:10279000B00601D4F80706D5082021680862E06E6B
:1027A00008210143E166E06E002837D0A80604D571
:1027B000B00602D5200000F0ADF8E06E000703D4AB
:1027C00020688068400624D5200000F03BF820688F
:1027D0008068400619D520688068402188432168B8
:1027E0008860606E00280CD01548616E4863606E8A
:1027F000FEF742FF002811D0606E616E496B88477A
:102800000CE02000FFF7E0F808E02000FFF7DCF81C
:1028100004E02000FFF7D8F80020E0660FE028066B
:1028200005D5300603D5200000F02AF807E0680639
:1028300005D5700603D5200000F05CF8FFE7F1BD78
:102840006728000801680968574A0A4001680A6059
:1028500001688968012291430268916020216A22FF
:1028600081547047000038B50400656A00205A2181
:1028700068520020522168522800FFF7A5F831BDA8
:1028800000B501006920085C212831D15220085A86
:1028900000280DD108680068802398430B681860F1
:1028A000086800684023034308680360002020E0B4
:1028B000886880235B0198420DD1086900280AD1FD
:1028C000C86C02001088C005C00D0B681885C86C64
:1028D000801CC86405E0C86C431CCB6400780B689E
:1028E00018855220085A401E5223C852002000E08A
:1028F000022000BD10B50400206800684021884314
:10290000216808602020692160542000FFF749F801
:10291000002010BDF8B504005C20255A6A20205C18
:10292000222838D12068808C0600A06880214901C7
:1029300088420BD12069002808D1606D070028006B
:1029400030403880606D801C606506E0606D411C21
:10295000616531002A000A4002705A20205A401E48
:102960005A21605280B2002813D1206800680E49B5
:102970000140206801602068806801218843216847
:10298000886020206A2160542000FFF70EF80020A4
:1029900008E0002006E020688069082101432068E3
:1029A00081610220F2BD0000DFFEFFFF10B50400D0
:1029B0002068006980071BD52068C068800717D58C
:1029C0000220C043216808610120207720688069C7
:1029D0008007800F002803D0200000F0A8F805E051
:1029E000200000F0A5F8200000F0A3F800202077D8
:1029F0002068006940071CD52068C068400718D5CA
:102A00000420C04321680861022020772068806983
:102A1000C02189000140002903D0200000F087F880
:102A200005E0200000F084F8200000F082F800208B
:102A300020772068006900071BD52068C068000760
:102A400017D50820C043216808610420207720683A
:102A5000C0698007800F002803D0200000F067F8CD
:102A600005E0200000F064F8200000F062F800208B
:102A7000207720680069C0061CD52068C068C006A1
:102A800018D51020C04321680861082020772068ED
:102A9000C069C02189000140002903D0200000F056
:102AA00046F805E0200000F043F8200000F041F86F
:102AB0000020207720680069C0070AD52068C06818
:102AC000C00706D50120C04321680861200000F03E
:102AD00031F82068006900060AD52068C068000641
:102AE00006D58020C04321680861200000F023F84B
:102AF0002068006940060AD52068C068400606D5EF
:102B00004020C04321680861200000F015F82068CB
:102B1000006980060AD52068C068800606D5202096
:102B2000C04321680861200000F007F810BD70471D
:102B30007047704770477047704770471948006882
:102B400001210143174801601748006817490140F7
:102B5000154801601348006815490140114801609B
:102B600010480068134901400E4801600E48006893
:102B7000114901400C480160104800680F2188434A
:102B80000E4908600E4800680E4901400C4801607B
:102B90000D480068012188430B49086000200B495B
:102BA0000860704700100240041002400CB8FF0893
:102BB000FFFFF6FEFFFFFBFFFFFFC0FF2C100240F0
:102BC00030100240ECFEFFFF3410024008100240BB
:102BD000704700B5FEE77047704780B500F030F8E9
:102BE00001BD80B51248FFF7E1FE01BD80B5114877
:102BF000FFF78AFD01BD80B50F48FFF785FD01BDD8
:102C000080B580208001FEF7F9FF01BD80B50B483B
:102C1000FDF762FD0948FDF76EFD01BD80B507486F
:102C2000C06BFEF755FD0548806BFEF751FD01BDF9
:102C3000CC0500201804002088040020F80400209F
:102C400002480068401C0149086070470C060020DB
:102C500070B40121002213E00468001D0C4202D070
:102C60004D466D1E64192260241D1B1F042BFAD2D1
:102C700025009E0701D52280AD1C0B4000D02A7094
:102C80000368001D002BE7D170BC704730B40121F0
:102C90000268001D002A0FD00368C318446808307A
:102CA0000C4202D04D466D1E64191D6825601B1D27
:102CB000241D121FECD0F8E730BC704710B507494F
:102CC00079441831064C7C44163404E0081D0A6827
:102CD000891888470100A142F8D110BD0800000002
:102CE000280000006DFFFFFFFC0100001804002019
:102CF0000000000099FFFFFF1400000054000000D6
:102D0000000000200000000000F00BF8002801D0B7
:102D1000FFF7D4FF002000BF00BFFEF76FFD00F0FB
:102D200002F80120704780B500F002F801BDFEE70F
:102D30000746384600F002F8FBE7FEE780B500BF23
:102D400000BF024A11001820ABBEFBE726000200BC
:102D50000004004800040048000400480004004843
:102D600000127A003132333435363434343434346A
:102D70003434343402030405060708090A0B0C0D29
:102D80000E0F10100102030405060708090A0B0CB8
:102D90000D0E0F10000000000000000001020304EF
:102DA0000607080901488047014800473D2B0008F5
:102DB000B52D000800BF00BF00BF00BFFFF7A4FF94
:102DC0000080004000200010FEE7FEE7FEE7FEE77F
:102DD000FEE7FEE7FEE7FEE7FEE7FEE7FEE7FEE7CB
:0400000508002DB50D
:00000001FF
